{
  "contractName": "GeospatialNFT",
  "abi": [
    {
      "inputs": [],
      "stateMutability": "nonpayable",
      "type": "constructor"
    },
    {
      "anonymous": false,
      "inputs": [
        {
          "indexed": true,
          "internalType": "address",
          "name": "owner",
          "type": "address"
        },
        {
          "indexed": true,
          "internalType": "address",
          "name": "approved",
          "type": "address"
        },
        {
          "indexed": true,
          "internalType": "uint256",
          "name": "tokenId",
          "type": "uint256"
        }
      ],
      "name": "Approval",
      "type": "event"
    },
    {
      "anonymous": false,
      "inputs": [
        {
          "indexed": true,
          "internalType": "address",
          "name": "owner",
          "type": "address"
        },
        {
          "indexed": true,
          "internalType": "address",
          "name": "operator",
          "type": "address"
        },
        {
          "indexed": false,
          "internalType": "bool",
          "name": "approved",
          "type": "bool"
        }
      ],
      "name": "ApprovalForAll",
      "type": "event"
    },
    {
      "anonymous": false,
      "inputs": [
        {
          "indexed": true,
          "internalType": "address",
          "name": "from",
          "type": "address"
        },
        {
          "indexed": true,
          "internalType": "address",
          "name": "to",
          "type": "address"
        },
        {
          "indexed": true,
          "internalType": "uint256",
          "name": "tokenId",
          "type": "uint256"
        }
      ],
      "name": "Transfer",
      "type": "event"
    },
    {
      "inputs": [
        {
          "internalType": "address",
          "name": "to",
          "type": "address"
        },
        {
          "internalType": "uint256",
          "name": "tokenId",
          "type": "uint256"
        }
      ],
      "name": "approve",
      "outputs": [],
      "stateMutability": "nonpayable",
      "type": "function"
    },
    {
      "inputs": [
        {
          "internalType": "address",
          "name": "owner",
          "type": "address"
        }
      ],
      "name": "balanceOf",
      "outputs": [
        {
          "internalType": "uint256",
          "name": "",
          "type": "uint256"
        }
      ],
      "stateMutability": "view",
      "type": "function"
    },
    {
      "inputs": [],
      "name": "baseURI",
      "outputs": [
        {
          "internalType": "string",
          "name": "",
          "type": "string"
        }
      ],
      "stateMutability": "view",
      "type": "function"
    },
    {
      "inputs": [
        {
          "internalType": "uint256",
          "name": "tokenId",
          "type": "uint256"
        }
      ],
      "name": "getApproved",
      "outputs": [
        {
          "internalType": "address",
          "name": "",
          "type": "address"
        }
      ],
      "stateMutability": "view",
      "type": "function"
    },
    {
      "inputs": [
        {
          "internalType": "address",
          "name": "owner",
          "type": "address"
        },
        {
          "internalType": "address",
          "name": "operator",
          "type": "address"
        }
      ],
      "name": "isApprovedForAll",
      "outputs": [
        {
          "internalType": "bool",
          "name": "",
          "type": "bool"
        }
      ],
      "stateMutability": "view",
      "type": "function"
    },
    {
      "inputs": [],
      "name": "name",
      "outputs": [
        {
          "internalType": "string",
          "name": "",
          "type": "string"
        }
      ],
      "stateMutability": "view",
      "type": "function"
    },
    {
      "inputs": [
        {
          "internalType": "uint256",
          "name": "tokenId",
          "type": "uint256"
        }
      ],
      "name": "ownerOf",
      "outputs": [
        {
          "internalType": "address",
          "name": "",
          "type": "address"
        }
      ],
      "stateMutability": "view",
      "type": "function"
    },
    {
      "inputs": [
        {
          "internalType": "address",
          "name": "from",
          "type": "address"
        },
        {
          "internalType": "address",
          "name": "to",
          "type": "address"
        },
        {
          "internalType": "uint256",
          "name": "tokenId",
          "type": "uint256"
        }
      ],
      "name": "safeTransferFrom",
      "outputs": [],
      "stateMutability": "nonpayable",
      "type": "function"
    },
    {
      "inputs": [
        {
          "internalType": "address",
          "name": "from",
          "type": "address"
        },
        {
          "internalType": "address",
          "name": "to",
          "type": "address"
        },
        {
          "internalType": "uint256",
          "name": "tokenId",
          "type": "uint256"
        },
        {
          "internalType": "bytes",
          "name": "_data",
          "type": "bytes"
        }
      ],
      "name": "safeTransferFrom",
      "outputs": [],
      "stateMutability": "nonpayable",
      "type": "function"
    },
    {
      "inputs": [
        {
          "internalType": "address",
          "name": "operator",
          "type": "address"
        },
        {
          "internalType": "bool",
          "name": "approved",
          "type": "bool"
        }
      ],
      "name": "setApprovalForAll",
      "outputs": [],
      "stateMutability": "nonpayable",
      "type": "function"
    },
    {
      "inputs": [
        {
          "internalType": "bytes4",
          "name": "interfaceId",
          "type": "bytes4"
        }
      ],
      "name": "supportsInterface",
      "outputs": [
        {
          "internalType": "bool",
          "name": "",
          "type": "bool"
        }
      ],
      "stateMutability": "view",
      "type": "function"
    },
    {
      "inputs": [],
      "name": "symbol",
      "outputs": [
        {
          "internalType": "string",
          "name": "",
          "type": "string"
        }
      ],
      "stateMutability": "view",
      "type": "function"
    },
    {
      "inputs": [
        {
          "internalType": "uint256",
          "name": "index",
          "type": "uint256"
        }
      ],
      "name": "tokenByIndex",
      "outputs": [
        {
          "internalType": "uint256",
          "name": "",
          "type": "uint256"
        }
      ],
      "stateMutability": "view",
      "type": "function"
    },
    {
      "inputs": [
        {
          "internalType": "address",
          "name": "owner",
          "type": "address"
        },
        {
          "internalType": "uint256",
          "name": "index",
          "type": "uint256"
        }
      ],
      "name": "tokenOfOwnerByIndex",
      "outputs": [
        {
          "internalType": "uint256",
          "name": "",
          "type": "uint256"
        }
      ],
      "stateMutability": "view",
      "type": "function"
    },
    {
      "inputs": [
        {
          "internalType": "uint256",
          "name": "tokenId",
          "type": "uint256"
        }
      ],
      "name": "tokenURI",
      "outputs": [
        {
          "internalType": "string",
          "name": "",
          "type": "string"
        }
      ],
      "stateMutability": "view",
      "type": "function"
    },
    {
      "inputs": [],
      "name": "totalSupply",
      "outputs": [
        {
          "internalType": "uint256",
          "name": "",
          "type": "uint256"
        }
      ],
      "stateMutability": "view",
      "type": "function"
    },
    {
      "inputs": [
        {
          "internalType": "address",
          "name": "from",
          "type": "address"
        },
        {
          "internalType": "address",
          "name": "to",
          "type": "address"
        },
        {
          "internalType": "uint256",
          "name": "tokenId",
          "type": "uint256"
        }
      ],
      "name": "transferFrom",
      "outputs": [],
      "stateMutability": "nonpayable",
      "type": "function"
    },
    {
      "inputs": [
        {
          "internalType": "address",
          "name": "receiver",
          "type": "address"
        },
        {
          "internalType": "string",
          "name": "tokenURI",
          "type": "string"
        }
      ],
      "name": "mintNft",
      "outputs": [
        {
          "internalType": "uint256",
          "name": "",
          "type": "uint256"
        }
      ],
      "stateMutability": "nonpayable",
      "type": "function"
    },
    {
      "inputs": [
        {
          "internalType": "uint256",
          "name": "tokenId",
          "type": "uint256"
        },
        {
          "internalType": "uint256",
          "name": "price",
          "type": "uint256"
        }
      ],
      "name": "setPrice",
      "outputs": [],
      "stateMutability": "nonpayable",
      "type": "function"
    },
    {
      "inputs": [
        {
          "internalType": "uint256",
          "name": "tokenId",
          "type": "uint256"
        }
      ],
      "name": "buyNft",
      "outputs": [],
      "stateMutability": "payable",
      "type": "function"
    },
    {
      "inputs": [
        {
          "internalType": "uint256",
          "name": "tokenId",
          "type": "uint256"
        }
      ],
      "name": "getPrice",
      "outputs": [
        {
          "internalType": "uint256",
          "name": "",
          "type": "uint256"
        }
      ],
      "stateMutability": "view",
      "type": "function"
    }
  ],
  "bytecode": "0x60806040523480156200001157600080fd5b506040518060400160405280600e81526020017f47656f7370617469616c2d4e46540000000000000000000000000000000000008152506040518060400160405280600481526020017f474e465400000000000000000000000000000000000000000000000000000000815250620000966301ffc9a760e01b6200011860201b60201c565b8160069080519060200190620000ae92919062000221565b508060079080519060200190620000c792919062000221565b50620000e06380ac58cd60e01b6200011860201b60201c565b620000f8635b5e139f60e01b6200011860201b60201c565b6200011063780e9d6360e01b6200011860201b60201c565b5050620002c7565b63ffffffff60e01b817bffffffffffffffffffffffffffffffffffffffffffffffffffffffff19161415620001b5576040517f08c379a000000000000000000000000000000000000000000000000000000000815260040180806020018281038252601c8152602001807f4552433136353a20696e76616c696420696e746572666163652069640000000081525060200191505060405180910390fd5b6001600080837bffffffffffffffffffffffffffffffffffffffffffffffffffffffff19167bffffffffffffffffffffffffffffffffffffffffffffffffffffffff1916815260200190815260200160002060006101000a81548160ff02191690831515021790555050565b828054600181600116156101000203166002900490600052602060002090601f016020900481019282601f106200026457805160ff191683800117855562000295565b8280016001018555821562000295579182015b828111156200029457825182559160200191906001019062000277565b5b509050620002a49190620002a8565b5090565b5b80821115620002c3576000816000905550600101620002a9565b5090565b61307180620002d76000396000f3fe60806040526004361061012a5760003560e01c80634f6ccce7116100ab578063a22cb4651161006f578063a22cb465146107e2578063b88d4fde1461083f578063c87b56dd14610951578063e757223014610a05578063e985e9c514610a54578063f7d9757714610adb5761012a565b80634f6ccce7146105a95780636352211e146105f85780636c0360eb1461065d57806370a08231146106ed57806395d89b41146107525761012a565b806318160ddd116100f257806318160ddd146103eb57806323b872dd14610416578063243adbdd146104915780632f745c59146104bf57806342842e0e1461052e5761012a565b806301ffc9a71461012f57806306fdde031461019f578063081812fc1461022f578063095ea7b31461029457806311f87b19146102ef575b600080fd5b34801561013b57600080fd5b506101876004803603602081101561015257600080fd5b8101908080357bffffffffffffffffffffffffffffffffffffffffffffffffffffffff19169060200190929190505050610b20565b60405180821515815260200191505060405180910390f35b3480156101ab57600080fd5b506101b4610b87565b6040518080602001828103825283818151815260200191508051906020019080838360005b838110156101f45780820151818401526020810190506101d9565b50505050905090810190601f1680156102215780820380516001836020036101000a031916815260200191505b509250505060405180910390f35b34801561023b57600080fd5b506102686004803603602081101561025257600080fd5b8101908080359060200190929190505050610c29565b604051808273ffffffffffffffffffffffffffffffffffffffff16815260200191505060405180910390f35b3480156102a057600080fd5b506102ed600480360360408110156102b757600080fd5b81019080803573ffffffffffffffffffffffffffffffffffffffff16906020019092919080359060200190929190505050610cc4565b005b3480156102fb57600080fd5b506103d56004803603604081101561031257600080fd5b81019080803573ffffffffffffffffffffffffffffffffffffffff1690602001909291908035906020019064010000000081111561034f57600080fd5b82018360208201111561036157600080fd5b8035906020019184600183028401116401000000008311171561038357600080fd5b91908080601f016020809104026020016040519081016040528093929190818152602001838380828437600081840152601f19601f820116905080830192505050505050509192919290505050610e08565b6040518082815260200191505060405180910390f35b3480156103f757600080fd5b50610400610e40565b6040518082815260200191505060405180910390f35b34801561042257600080fd5b5061048f6004803603606081101561043957600080fd5b81019080803573ffffffffffffffffffffffffffffffffffffffff169060200190929190803573ffffffffffffffffffffffffffffffffffffffff16906020019092919080359060200190929190505050610e51565b005b6104bd600480360360208110156104a757600080fd5b8101908080359060200190929190505050610ec7565b005b3480156104cb57600080fd5b50610518600480360360408110156104e257600080fd5b81019080803573ffffffffffffffffffffffffffffffffffffffff1690602001909291908035906020019092919050505061100e565b6040518082815260200191505060405180910390f35b34801561053a57600080fd5b506105a76004803603606081101561055157600080fd5b81019080803573ffffffffffffffffffffffffffffffffffffffff169060200190929190803573ffffffffffffffffffffffffffffffffffffffff16906020019092919080359060200190929190505050611069565b005b3480156105b557600080fd5b506105e2600480360360208110156105cc57600080fd5b8101908080359060200190929190505050611089565b6040518082815260200191505060405180910390f35b34801561060457600080fd5b506106316004803603602081101561061b57600080fd5b81019080803590602001909291905050506110ac565b604051808273ffffffffffffffffffffffffffffffffffffffff16815260200191505060405180910390f35b34801561066957600080fd5b506106726110e3565b6040518080602001828103825283818151815260200191508051906020019080838360005b838110156106b2578082015181840152602081019050610697565b50505050905090810190601f1680156106df5780820380516001836020036101000a031916815260200191505b509250505060405180910390f35b3480156106f957600080fd5b5061073c6004803603602081101561071057600080fd5b81019080803573ffffffffffffffffffffffffffffffffffffffff169060200190929190505050611185565b6040518082815260200191505060405180910390f35b34801561075e57600080fd5b5061076761125a565b6040518080602001828103825283818151815260200191508051906020019080838360005b838110156107a757808201518184015260208101905061078c565b50505050905090810190601f1680156107d45780820380516001836020036101000a031916815260200191505b509250505060405180910390f35b3480156107ee57600080fd5b5061083d6004803603604081101561080557600080fd5b81019080803573ffffffffffffffffffffffffffffffffffffffff1690602001909291908035151590602001909291905050506112fc565b005b34801561084b57600080fd5b5061094f6004803603608081101561086257600080fd5b81019080803573ffffffffffffffffffffffffffffffffffffffff169060200190929190803573ffffffffffffffffffffffffffffffffffffffff16906020019092919080359060200190929190803590602001906401000000008111156108c957600080fd5b8201836020820111156108db57600080fd5b803590602001918460018302840111640100000000831117156108fd57600080fd5b91908080601f016020809104026020016040519081016040528093929190818152602001838380828437600081840152601f19601f8201169050808301925050505050505091929192905050506114b2565b005b34801561095d57600080fd5b5061098a6004803603602081101561097457600080fd5b810190808035906020019092919050505061152a565b6040518080602001828103825283818151815260200191508051906020019080838360005b838110156109ca5780820151818401526020810190506109af565b50505050905090810190601f1680156109f75780820380516001836020036101000a031916815260200191505b509250505060405180910390f35b348015610a1157600080fd5b50610a3e60048036036020811015610a2857600080fd5b8101908080359060200190929190505050611813565b6040518082815260200191505060405180910390f35b348015610a6057600080fd5b50610ac360048036036040811015610a7757600080fd5b81019080803573ffffffffffffffffffffffffffffffffffffffff169060200190929190803573ffffffffffffffffffffffffffffffffffffffff169060200190929190505050611830565b60405180821515815260200191505060405180910390f35b348015610ae757600080fd5b50610b1e60048036036040811015610afe57600080fd5b8101908080359060200190929190803590602001909291905050506118c4565b005b6000806000837bffffffffffffffffffffffffffffffffffffffffffffffffffffffff19167bffffffffffffffffffffffffffffffffffffffffffffffffffffffff1916815260200190815260200160002060009054906101000a900460ff169050919050565b606060068054600181600116156101000203166002900480601f016020809104026020016040519081016040528092919081815260200182805460018160011615610100020316600290048015610c1f5780601f10610bf457610100808354040283529160200191610c1f565b820191906000526020600020905b815481529060010190602001808311610c0257829003601f168201915b5050505050905090565b6000610c34826119f8565b610c89576040517f08c379a000000000000000000000000000000000000000000000000000000000815260040180806020018281038252602c815260200180612f10602c913960400191505060405180910390fd5b6004600083815260200190815260200160002060009054906101000a900473ffffffffffffffffffffffffffffffffffffffff169050919050565b6000610ccf826110ac565b90508073ffffffffffffffffffffffffffffffffffffffff168373ffffffffffffffffffffffffffffffffffffffff161415610d56576040517f08c379a0000000000000000000000000000000000000000000000000000000008152600401808060200182810382526021815260200180612fc06021913960400191505060405180910390fd5b8073ffffffffffffffffffffffffffffffffffffffff16610d75611a15565b73ffffffffffffffffffffffffffffffffffffffff161480610da45750610da381610d9e611a15565b611830565b5b610df9576040517f08c379a0000000000000000000000000000000000000000000000000000000008152600401808060200182810382526038815260200180612e406038913960400191505060405180910390fd5b610e038383611a1d565b505050565b6000610e14600a611ad6565b6000610e20600a611aec565b9050610e2c8482611afa565b610e368184611cee565b8091505092915050565b6000610e4c6002611d78565b905090565b610e62610e5c611a15565b82611d8d565b610eb7576040517f08c379a000000000000000000000000000000000000000000000000000000000815260040180806020018281038252603181526020018061300b6031913960400191505060405180910390fd5b610ec2838383611e81565b505050565b6000600b60008381526020019081526020016000205490506000811415610f39576040517f08c379a000000000000000000000000000000000000000000000000000000000815260040180806020018281038252602a815260200180612fe1602a913960400191505060405180910390fd5b803414610f91576040517f08c379a0000000000000000000000000000000000000000000000000000000008152600401808060200182810382526024815260200180612df16024913960400191505060405180910390fd5b6000610f9c836110ac565b90506000600b600085815260200190815260200160002081905550610fc2813385610e51565b8073ffffffffffffffffffffffffffffffffffffffff166108fc349081150290604051600060405180830381858888f19350505050158015611008573d6000803e3d6000fd5b50505050565b600061106182600160008673ffffffffffffffffffffffffffffffffffffffff1673ffffffffffffffffffffffffffffffffffffffff1681526020019081526020016000206120c490919063ffffffff16565b905092915050565b611084838383604051806020016040528060008152506114b2565b505050565b6000806110a08360026120de90919063ffffffff16565b50905080915050919050565b60006110dc82604051806060016040528060298152602001612ea260299139600261210a9092919063ffffffff16565b9050919050565b606060098054600181600116156101000203166002900480601f01602080910402602001604051908101604052809291908181526020018280546001816001161561010002031660029004801561117b5780601f106111505761010080835404028352916020019161117b565b820191906000526020600020905b81548152906001019060200180831161115e57829003601f168201915b5050505050905090565b60008073ffffffffffffffffffffffffffffffffffffffff168273ffffffffffffffffffffffffffffffffffffffff16141561120c576040517f08c379a000000000000000000000000000000000000000000000000000000000815260040180806020018281038252602a815260200180612e78602a913960400191505060405180910390fd5b611253600160008473ffffffffffffffffffffffffffffffffffffffff1673ffffffffffffffffffffffffffffffffffffffff168152602001908152602001600020612129565b9050919050565b606060078054600181600116156101000203166002900480601f0160208091040260200160405190810160405280929190818152602001828054600181600116156101000203166002900480156112f25780601f106112c7576101008083540402835291602001916112f2565b820191906000526020600020905b8154815290600101906020018083116112d557829003601f168201915b5050505050905090565b611304611a15565b73ffffffffffffffffffffffffffffffffffffffff168273ffffffffffffffffffffffffffffffffffffffff1614156113a5576040517f08c379a00000000000000000000000000000000000000000000000000000000081526004018080602001828103825260198152602001807f4552433732313a20617070726f766520746f2063616c6c65720000000000000081525060200191505060405180910390fd5b80600560006113b2611a15565b73ffffffffffffffffffffffffffffffffffffffff1673ffffffffffffffffffffffffffffffffffffffff16815260200190815260200160002060008473ffffffffffffffffffffffffffffffffffffffff1673ffffffffffffffffffffffffffffffffffffffff16815260200190815260200160002060006101000a81548160ff0219169083151502179055508173ffffffffffffffffffffffffffffffffffffffff1661145f611a15565b73ffffffffffffffffffffffffffffffffffffffff167f17307eab39ab6107e8899845ad3d59bd9653f200f220920489ca2b5937696c318360405180821515815260200191505060405180910390a35050565b6114c36114bd611a15565b83611d8d565b611518576040517f08c379a000000000000000000000000000000000000000000000000000000000815260040180806020018281038252603181526020018061300b6031913960400191505060405180910390fd5b6115248484848461213e565b50505050565b6060611535826119f8565b61158a576040517f08c379a000000000000000000000000000000000000000000000000000000000815260040180806020018281038252602f815260200180612f91602f913960400191505060405180910390fd5b6060600860008481526020019081526020016000208054600181600116156101000203166002900480601f0160208091040260200160405190810160405280929190818152602001828054600181600116156101000203166002900480156116335780601f1061160857610100808354040283529160200191611633565b820191906000526020600020905b81548152906001019060200180831161161657829003601f168201915b50505050509050600060098054600181600116156101000203166002900490501415611662578091505061180e565b60008151111561173b5760098160405160200180838054600181600116156101000203166002900480156116cd5780601f106116ab5761010080835404028352918201916116cd565b820191906000526020600020905b8154815290600101906020018083116116b9575b505082805190602001908083835b602083106116fe57805182526020820191506020810190506020830392506116db565b6001836020036101000a0380198251168184511680821785525050505050509050019250505060405160208183030381529060405291505061180e565b6009611746846121b0565b60405160200180838054600181600116156101000203166002900480156117a45780601f106117825761010080835404028352918201916117a4565b820191906000526020600020905b815481529060010190602001808311611790575b505082805190602001908083835b602083106117d557805182526020820191506020810190506020830392506117b2565b6001836020036101000a038019825116818451168082178552505050505050905001925050506040516020818303038152906040529150505b919050565b6000600b6000838152602001908152602001600020549050919050565b6000600560008473ffffffffffffffffffffffffffffffffffffffff1673ffffffffffffffffffffffffffffffffffffffff16815260200190815260200160002060008373ffffffffffffffffffffffffffffffffffffffff1673ffffffffffffffffffffffffffffffffffffffff16815260200190815260200160002060009054906101000a900460ff16905092915050565b60006118cf836110ac565b9050600073ffffffffffffffffffffffffffffffffffffffff168173ffffffffffffffffffffffffffffffffffffffff161415611957576040517f08c379a0000000000000000000000000000000000000000000000000000000008152600401808060200182810382526023815260200180612eed6023913960400191505060405180910390fd5b3373ffffffffffffffffffffffffffffffffffffffff168173ffffffffffffffffffffffffffffffffffffffff16146119db576040517f08c379a000000000000000000000000000000000000000000000000000000000815260040180806020018281038252602b815260200180612e15602b913960400191505060405180910390fd5b81600b600085815260200190815260200160002081905550505050565b6000611a0e8260026122f790919063ffffffff16565b9050919050565b600033905090565b816004600083815260200190815260200160002060006101000a81548173ffffffffffffffffffffffffffffffffffffffff021916908373ffffffffffffffffffffffffffffffffffffffff160217905550808273ffffffffffffffffffffffffffffffffffffffff16611a90836110ac565b73ffffffffffffffffffffffffffffffffffffffff167f8c5be1e5ebec7d5bd14f71427d1e84f3dd0314c0f7b2291e5b200ac8c7c3b92560405160405180910390a45050565b6001816000016000828254019250508190555050565b600081600001549050919050565b600073ffffffffffffffffffffffffffffffffffffffff168273ffffffffffffffffffffffffffffffffffffffff161415611b9d576040517f08c379a00000000000000000000000000000000000000000000000000000000081526004018080602001828103825260208152602001807f4552433732313a206d696e7420746f20746865207a65726f206164647265737381525060200191505060405180910390fd5b611ba6816119f8565b15611c19576040517f08c379a000000000000000000000000000000000000000000000000000000000815260040180806020018281038252601c8152602001807f4552433732313a20746f6b656e20616c7265616479206d696e7465640000000081525060200191505060405180910390fd5b611c2560008383612311565b611c7681600160008573ffffffffffffffffffffffffffffffffffffffff1673ffffffffffffffffffffffffffffffffffffffff16815260200190815260200160002061231690919063ffffffff16565b50611c8d818360026123309092919063ffffffff16565b50808273ffffffffffffffffffffffffffffffffffffffff16600073ffffffffffffffffffffffffffffffffffffffff167fddf252ad1be2c89b69c2b068fc378daa952ba7f163c4a11628f55a4df523b3ef60405160405180910390a45050565b611cf7826119f8565b611d4c576040517f08c379a000000000000000000000000000000000000000000000000000000000815260040180806020018281038252602c815260200180612f3c602c913960400191505060405180910390fd5b80600860008481526020019081526020016000209080519060200190611d73929190612caf565b505050565b6000611d8682600001612365565b9050919050565b6000611d98826119f8565b611ded576040517f08c379a000000000000000000000000000000000000000000000000000000000815260040180806020018281038252602c815260200180612dc5602c913960400191505060405180910390fd5b6000611df8836110ac565b90508073ffffffffffffffffffffffffffffffffffffffff168473ffffffffffffffffffffffffffffffffffffffff161480611e6757508373ffffffffffffffffffffffffffffffffffffffff16611e4f84610c29565b73ffffffffffffffffffffffffffffffffffffffff16145b80611e785750611e778185611830565b5b91505092915050565b8273ffffffffffffffffffffffffffffffffffffffff16611ea1826110ac565b73ffffffffffffffffffffffffffffffffffffffff1614611f0d576040517f08c379a0000000000000000000000000000000000000000000000000000000008152600401808060200182810382526029815260200180612f686029913960400191505060405180910390fd5b600073ffffffffffffffffffffffffffffffffffffffff168273ffffffffffffffffffffffffffffffffffffffff161415611f93576040517f08c379a0000000000000000000000000000000000000000000000000000000008152600401808060200182810382526024815260200180612da16024913960400191505060405180910390fd5b611f9e838383612311565b611fa9600082611a1d565b611ffa81600160008673ffffffffffffffffffffffffffffffffffffffff1673ffffffffffffffffffffffffffffffffffffffff16815260200190815260200160002061237690919063ffffffff16565b5061204c81600160008573ffffffffffffffffffffffffffffffffffffffff1673ffffffffffffffffffffffffffffffffffffffff16815260200190815260200160002061231690919063ffffffff16565b50612063818360026123309092919063ffffffff16565b50808273ffffffffffffffffffffffffffffffffffffffff168473ffffffffffffffffffffffffffffffffffffffff167fddf252ad1be2c89b69c2b068fc378daa952ba7f163c4a11628f55a4df523b3ef60405160405180910390a4505050565b60006120d38360000183612390565b60001c905092915050565b6000806000806120f18660000186612413565b915091508160001c8160001c9350935050509250929050565b600061211d846000018460001b846124ac565b60001c90509392505050565b6000612137826000016125a2565b9050919050565b612149848484611e81565b612155848484846125b3565b6121aa576040517f08c379a0000000000000000000000000000000000000000000000000000000008152600401808060200182810382526032815260200180612d6f6032913960400191505060405180910390fd5b50505050565b606060008214156121f8576040518060400160405280600181526020017f300000000000000000000000000000000000000000000000000000000000000081525090506122f2565b600082905060005b60008214612222578080600101915050600a828161221a57fe5b049150612200565b60608167ffffffffffffffff8111801561223b57600080fd5b506040519080825280601f01601f19166020018201604052801561226e5781602001600182028036833780820191505090505b50905060006001830390508593505b600084146122ea57600a848161228f57fe5b0660300160f81b828280600190039350815181106122a957fe5b60200101907effffffffffffffffffffffffffffffffffffffffffffffffffffffffffffff1916908160001a905350600a84816122e257fe5b04935061227d565b819450505050505b919050565b6000612309836000018360001b6127cc565b905092915050565b505050565b6000612328836000018360001b6127ef565b905092915050565b600061235c846000018460001b8473ffffffffffffffffffffffffffffffffffffffff1660001b61285f565b90509392505050565b600081600001805490509050919050565b6000612388836000018360001b61293b565b905092915050565b6000818360000180549050116123f1576040517f08c379a0000000000000000000000000000000000000000000000000000000008152600401808060200182810382526022815260200180612d4d6022913960400191505060405180910390fd5b82600001828154811061240057fe5b9060005260206000200154905092915050565b60008082846000018054905011612475576040517f08c379a0000000000000000000000000000000000000000000000000000000008152600401808060200182810382526022815260200180612ecb6022913960400191505060405180910390fd5b600084600001848154811061248657fe5b906000526020600020906002020190508060000154816001015492509250509250929050565b60008084600101600085815260200190815260200160002054905060008114158390612573576040517f08c379a00000000000000000000000000000000000000000000000000000000081526004018080602001828103825283818151815260200191508051906020019080838360005b8381101561253857808201518184015260208101905061251d565b50505050905090810190601f1680156125655780820380516001836020036101000a031916815260200191505b509250505060405180910390fd5b5084600001600182038154811061258657fe5b9060005260206000209060020201600101549150509392505050565b600081600001805490509050919050565b60006125d48473ffffffffffffffffffffffffffffffffffffffff16612a23565b6125e157600190506127c4565b606061274b63150b7a0260e01b6125f6611a15565b888787604051602401808573ffffffffffffffffffffffffffffffffffffffff1681526020018473ffffffffffffffffffffffffffffffffffffffff16815260200183815260200180602001828103825283818151815260200191508051906020019080838360005b8381101561267a57808201518184015260208101905061265f565b50505050905090810190601f1680156126a75780820380516001836020036101000a031916815260200191505b5095505050505050604051602081830303815290604052907bffffffffffffffffffffffffffffffffffffffffffffffffffffffff19166020820180517bffffffffffffffffffffffffffffffffffffffffffffffffffffffff8381831617835250505050604051806060016040528060328152602001612d6f603291398773ffffffffffffffffffffffffffffffffffffffff16612a6e9092919063ffffffff16565b9050600081806020019051602081101561276457600080fd5b8101908080519060200190929190505050905063150b7a0260e01b7bffffffffffffffffffffffffffffffffffffffffffffffffffffffff1916817bffffffffffffffffffffffffffffffffffffffffffffffffffffffff191614925050505b949350505050565b600080836001016000848152602001908152602001600020541415905092915050565b60006127fb8383612a86565b612854578260000182908060018154018082558091505060019003906000526020600020016000909190919091505582600001805490508360010160008481526020019081526020016000208190555060019050612859565b600090505b92915050565b600080846001016000858152602001908152602001600020549050600081141561290657846000016040518060400160405280868152602001858152509080600181540180825580915050600190039060005260206000209060020201600090919091909150600082015181600001556020820151816001015550508460000180549050856001016000868152602001908152602001600020819055506001915050612934565b8285600001600183038154811061291957fe5b90600052602060002090600202016001018190555060009150505b9392505050565b60008083600101600084815260200190815260200160002054905060008114612a17576000600182039050600060018660000180549050039050600086600001828154811061298657fe5b90600052602060002001549050808760000184815481106129a357fe5b90600052602060002001819055506001830187600101600083815260200190815260200160002081905550866000018054806129db57fe5b60019003818190600052602060002001600090559055866001016000878152602001908152602001600020600090556001945050505050612a1d565b60009150505b92915050565b60008060007fc5d2460186f7233c927e7db2dcc703c0e500b653ca82273b7bfad8045d85a47060001b9050833f9150808214158015612a6557506000801b8214155b92505050919050565b6060612a7d8484600085612aa9565b90509392505050565b600080836001016000848152602001908152602001600020541415905092915050565b6060612ab485612a23565b612b26576040517f08c379a000000000000000000000000000000000000000000000000000000000815260040180806020018281038252601d8152602001807f416464726573733a2063616c6c20746f206e6f6e2d636f6e747261637400000081525060200191505060405180910390fd5b600060608673ffffffffffffffffffffffffffffffffffffffff1685876040518082805190602001908083835b60208310612b765780518252602082019150602081019050602083039250612b53565b6001836020036101000a03801982511681845116808217855250505050505090500191505060006040518083038185875af1925050503d8060008114612bd8576040519150601f19603f3d011682016040523d82523d6000602084013e612bdd565b606091505b50915091508115612bf2578092505050612ca7565b600081511115612c055780518082602001fd5b836040517f08c379a00000000000000000000000000000000000000000000000000000000081526004018080602001828103825283818151815260200191508051906020019080838360005b83811015612c6c578082015181840152602081019050612c51565b50505050905090810190601f168015612c995780820380516001836020036101000a031916815260200191505b509250505060405180910390fd5b949350505050565b828054600181600116156101000203166002900490600052602060002090601f016020900481019282601f10612cf057805160ff1916838001178555612d1e565b82800160010185558215612d1e579182015b82811115612d1d578251825591602001919060010190612d02565b5b509050612d2b9190612d2f565b5090565b5b80821115612d48576000816000905550600101612d30565b509056fe456e756d657261626c655365743a20696e646578206f7574206f6620626f756e64734552433732313a207472616e7366657220746f206e6f6e20455243373231526563656976657220696d706c656d656e7465724552433732313a207472616e7366657220746f20746865207a65726f20616464726573734552433732313a206f70657261746f7220717565727920666f72206e6f6e6578697374656e7420746f6b656e6275794e66743a20706c65617365207365742074686520636f727265637420707269636573657450726963653a20796f7520617265206e6f7420746865206f776e6572206f662074686174204e46544552433732313a20617070726f76652063616c6c6572206973206e6f74206f776e6572206e6f7220617070726f76656420666f7220616c6c4552433732313a2062616c616e636520717565727920666f7220746865207a65726f20616464726573734552433732313a206f776e657220717565727920666f72206e6f6e6578697374656e7420746f6b656e456e756d657261626c654d61703a20696e646578206f7574206f6620626f756e647373657450726963653a207468657265206973206e6f20746f6b656e20657869737465644552433732313a20617070726f76656420717565727920666f72206e6f6e6578697374656e7420746f6b656e4552433732314d657461646174613a2055524920736574206f66206e6f6e6578697374656e7420746f6b656e4552433732313a207472616e73666572206f6620746f6b656e2074686174206973206e6f74206f776e4552433732314d657461646174613a2055524920717565727920666f72206e6f6e6578697374656e7420746f6b656e4552433732313a20617070726f76616c20746f2063757272656e74206f776e65726275794e66743a20746865206f776e6572206469646e27742073657420746865207072696365207965744552433732313a207472616e736665722063616c6c6572206973206e6f74206f776e6572206e6f7220617070726f766564a2646970667358221220305dcccd2430b7acf83fd29b796f578a4400dcedbb243fc0dd3435a3be47c8aa64736f6c63430007000033",
  "immutableReferences": {},
  "source": "pragma solidity ^0.7.0;\r\n\r\nimport \"@OpenZeppelin/contracts/token/ERC721/ERC721.sol\";\r\nimport \"@OpenZeppelin/contracts/utils/Counters.sol\";\r\n\r\ncontract GeospatialNFT is ERC721 {\r\n    using Counters for Counters.Counter;\r\n    Counters.Counter private _tokenIds;\r\n    mapping(uint256 => uint256) private salePrice;\r\n    constructor() ERC721(\"Geospatial-NFT\", \"GNFT\") {}\r\n\r\n    function mintNft(address receiver, string memory tokenURI) external returns (uint256) {\r\n        _tokenIds.increment();\r\n        uint256 newNftTokenId = _tokenIds.current();\r\n        _mint(receiver, newNftTokenId);\r\n        _setTokenURI(newNftTokenId, tokenURI);\r\n        return newNftTokenId;\r\n    }\r\n\r\n    function setPrice(uint256 tokenId, uint256 price) public {\r\n    address owner = ownerOf(tokenId);\r\n        require(owner != address(0), \"setPrice: there is no token existed\");\r\n        require(owner == msg.sender, \"setPrice: you are not the owner of that NFT\");\r\n    salePrice[tokenId] = price;\r\n  }\r\n    function buyNft(uint256 tokenId) public payable {\r\n    uint256 price = salePrice[tokenId];\r\n        require(price != 0, \"buyNft: the owner didn't set the price yet\");\r\n        require(msg.value == price, \"buyNft: please set the correct price\");\r\n    address payable owner = address(uint160(ownerOf(tokenId)));\r\n    salePrice[tokenId] = 0; // not for sale anymore\r\n    transferFrom(owner, msg.sender, tokenId);\r\n        owner.transfer(msg.value); // send the ETH to the seller/owner\r\n    }\r\n    function getPrice(uint256 tokenId) public view returns (uint256) {\r\n    return salePrice[tokenId];\r\n  }\r\n}\r\n",
  "sourcePath": "C:/Users/hp/OneDrive/Bureau/google-maps-in-react-master/client/contracts/localisation.sol",
  "compiler": {
    "name": "solc",
    "version": "0.7.0+commit.9e61f92b.Emscripten.clang"
  },
  "schemaVersion": "3.4.1",
  "updatedAt": "2021-07-23T17:10:25.434Z",
  "devdoc": {
    "kind": "dev",
    "methods": {
      "approve(address,uint256)": {
        "details": "See {IERC721-approve}."
      },
      "balanceOf(address)": {
        "details": "See {IERC721-balanceOf}."
      },
      "baseURI()": {
        "details": "Returns the base URI set via {_setBaseURI}. This will be automatically added as a prefix in {tokenURI} to each token's URI, or to the token ID if no specific URI is set for that token ID."
      },
      "getApproved(uint256)": {
        "details": "See {IERC721-getApproved}."
      },
      "isApprovedForAll(address,address)": {
        "details": "See {IERC721-isApprovedForAll}."
      },
      "name()": {
        "details": "See {IERC721Metadata-name}."
      },
      "ownerOf(uint256)": {
        "details": "See {IERC721-ownerOf}."
      },
      "safeTransferFrom(address,address,uint256)": {
        "details": "See {IERC721-safeTransferFrom}."
      },
      "safeTransferFrom(address,address,uint256,bytes)": {
        "details": "See {IERC721-safeTransferFrom}."
      },
      "setApprovalForAll(address,bool)": {
        "details": "See {IERC721-setApprovalForAll}."
      },
      "supportsInterface(bytes4)": {
        "details": "See {IERC165-supportsInterface}. Time complexity O(1), guaranteed to always use less than 30 000 gas."
      },
      "symbol()": {
        "details": "See {IERC721Metadata-symbol}."
      },
      "tokenByIndex(uint256)": {
        "details": "See {IERC721Enumerable-tokenByIndex}."
      },
      "tokenOfOwnerByIndex(address,uint256)": {
        "details": "See {IERC721Enumerable-tokenOfOwnerByIndex}."
      },
      "tokenURI(uint256)": {
        "details": "See {IERC721Metadata-tokenURI}."
      },
      "totalSupply()": {
        "details": "See {IERC721Enumerable-totalSupply}."
      },
      "transferFrom(address,address,uint256)": {
        "details": "See {IERC721-transferFrom}."
      }
    },
    "version": 1
  },
  "userdoc": {
    "kind": "user",
    "methods": {},
    "version": 1
  }
}